:020000040800F2
:10000000002000100DB7040829B104082BB1040822
:100010002DB104082FB1040831B10408000000001C
:1000200000000000000000000000000033B10408E0
:1000300035B104080000000037B1040839B10408E4
:1000400005B8040809B804080DB8040811B8040874
:1000500015B8040819B804081DB8040821B8040824
:1000600045B104084FB1040859B1040825B8040883
:1000700029B804082DB8040831B8040835B80408B4
:1000800039B804083DB8040863B1040841B804084D
:100090006DB1040877B1040881B104088BB104087C
:1000A00045B8040849B804084DB8040851B8040814
:1000B00055B8040859B804085DB8040861B80408C4
:1000C00065B8040869B804086DB8040871B8040874
:1000D00075B804089DB1040879B804087DB804080F
:1000E00081B8040885B8040889B804088DB80408E4
:1000F00091B8040895B8040899B804089DB8040894
:10010000A1B80408A5B80408A9B80408ADB8040843
:10011000B1B80408B5B80408B9B80408BDB80408F3
:10012000B7B10408C1B80408C1B10408C5B80408CF
:10013000C9B80408CDB80408D1B80408D5B8040873
:10014000D9B80408DDB80408E1B80408E5B8040823
:10015000E9B80408EDB80408CBB10408F1B8040804
:10016000F5B80408F9B80408FDB8040801B9040892
:1001700005B9040809B904080DB904080000000015
:1001800011B9040815B904083ED7D55B141214013F
:10019000D500D500D500D500D500D500D500D500B7
:1001A000D500D500D500D5001311564B56191401B2
:1001B000D500D5001301D500D50014011401D400D9
:1001C000D500D600D5008F018902C702C7020603F9
:1001D0000603060306030603060306030603C70A0F
:1001E00006030603C7020503C70A1133154B154B57
:1001F000154B154B154B154B154B154B154B154BFF
:10020000154B154B154B154B154B154B154B154BEE
:10021000154B154B154B154B154B154B154B154BDE
:10022000154B154B154B154B154B154B154B154BCE
:10023000154B154B154B154B154B154B154B154BBE
:10024000154B154B154B154B154B154B154B1553A6
:100250005453CE315553154B154B154B154B154B70
:10026000154B154B154B154B154B154B154B154B8E
:10027000154B154B154B154B154B154B154BD22AE2
:100280004C0BA70CA8044804A604470CA70CA70C09
:10029000A70CA70CA70CA70CA70CA70CA70CA70CC6
:1002A000A70CA70CA70CA70CA70CA70CA70CA70CB6
:1002B000A70CA70CA70CA70CA70CA70CA70CA70CA6
:1002C000A70CA70CE60C470C470BA60CE70CA704E1
:1002D000A704A70CA704A7044704CB23EE344814B3
:1002E000470CA704A704470CA70CA60CA70CA70C47
:1002F000A804A70447044704480C4E0C140CD50B63
:10030000140C1214131413141314131413141314BD
:100310001314D40BD313133C145413141404D41B0C
:10032000131413141314131413141314130C120CA6
:10033000130CD51311144A0CA80C4804A704470C3D
:1003400048144814A614E60CA70C480C480CA70C3B
:10035000470C4B2C4B24470C470C470C470C470CC5
:10036000470CA70CA70CA704A704A704A704A7047D
:10037000A70CA70CA70CA70CA70CA70CA70CA70CE5
:10038000A70CA70CA70CA70CA70CA70CA70CA70CD5
:10039000A70CA70CA70CA70CA70CA70CA70CA70CC5
:1003A000A70CA70CA70CA60C470CA70448040F0326
:1003B000901A106B0F7B0F7B0F7B0F7B0F7B0F7BDC
:1003C0000F7B0F7B0F7B0F7B0F7B0F7B0F7B0F7BDD
:1003D0000F7B0F7B0F7B0F7B0F7B0F7B0F7B0F7BCD
:1003E0000F7B0F7B0F7B0F7B0F7B0F7B0F7B0F7BBD
:1003F0000F7B0F7B0F7B0F7B0F7B0F7B0F7B0F7BAD
:100400000F7B0F7B0F7B0F7B0F7B0F7B0F7B0F7B9C
:100410000F7B0F7B0F7B0F7B0F7B0F7B0F7B0F7B8C
:100420000F7B0F7B0F7B0F7B0F7B0F7B0F7B0F7B7C
:100430000F7B0F7B0F7B0F7B0F7B0F7B0F7B0F7B6C
:100440000F7B0F7B4F6B0813C602070B06030603D7
:100450000603060306030603060306030603060354
:10046000C70AC712070B0742C78006710679C6780C
:10047000C678C678C678C678C678C778C770C77099
:10048000C780C668CE828A81C778C678C678C678A3
:10049000C678C678C778C780C7780671C680C78017
:1004A000C8684B410F1A7BB6BFE7D65BD409560824
:1004B0001708170817081708170817081708170844
:1004C000170817081708170854189773172956089C
:1004D0005600170855101708160855085508130038
:1004E0001608170818004E01850A410B800B800B77
:1004F000800B800B800B800B800B800B800B4113DB
:10050000800B800B4203800B0213504BD66BD66BD3
:10051000D66BD66BD66BD66BD66BD66BD66BD66BD3
:10052000D66BD66BD66BD66BD66BD66BD66BD66BC3
:10053000D66BD66BD66BD66BD66BD66BD66BD66BB3
:10054000D66BD66BD66BD66BD66BD66BD66BD66BA3
:10055000D66BD66BD66BD66BD66BD66BD66BD66B93
:10056000D66BD66BD66BD66BD66BD66B976B976B01
:10057000D6730E3AD673966BD66BD66BD66BD66B9C
:10058000D66BD66BD66BD66BD66BD66BD66BD66B63
:10059000D66BD66BD66BD66B966B966B966B123B07
:1005A000C70B8115E10DE10D200E8115E00DE00D69
:1005B000E00DE00DE00DE00DE00DE00DE00DE00DD3
:1005C000E00DE00DE00DE00DE00DE00DE00DE00DC3
:1005D000E00DE00DE00DE00DE00DE00DE00DE00DB3
:1005E000E00DE005201E2225010B81252016810546
:1005F000E015801D8115E00DE11527456B6683250B
:10060000E015E00DE00D81158115810DE00D20064E
:100610002006E005810D8105E2054B053305350512
:100620005405530D340D350D350D350D350D350D86
:10063000350D35053415355D5575341D5505F50CED
:10064000350D350D350D350D350D350D35053405AB
:100650003505350DEE0DE3052006E005E00DE00D56
:10066000E00D81058105E10DE0058105E105E0056D
:10067000E115E635262EE005E005E005E005E0059C
:10068000E005E005E005E005E005E105E105E1053F
:10069000E00DE00DE00DE00DE00DE00DE00DE00DF2
:1006A000E00DE00DE00DE00DE00DE00DE00DE00DE2
:1006B000E00DE00DE00DE00DE00DE00DE00DE00DD2
:1006C000E00DE00DE00D200E811DE015830D4D1BAA
:1006D000103A4FA38EBB8EBB8EBB8EBB8EBB8EBB28
:1006E0008EBB8EBB8EBB8EBB8EBB8EBB8EBB8EBBC2
:1006F0008EBB8EBB8EBB8EBB8EBB8EBB8EBB8EBBB2
:100700008EBB8EBB8EBB8EBB8EBB8EBB8EBB8EBBA1
:100710008EBB8EBB8EBB8EBB8EBB8EBB8EBB8EBB91
:100720008EBB8EBB8EBB8EBB8EBB8EBB8EBB8EBB81
:100730008EBB8EBB8EBB8EBB8EBB8EBB8EBB8EBB71
:100740008EBB8EBB8EBB8EBB8EBB8EBB8EBB8EBB61
:100750008EBB8EBB8EBB8EBB8EBB8EBB8EBB8EBB51
:100760008EBB8EBBCDABC223400B8113400B800BE5
:10077000800B800B800B800B800B800B800B800B21
:10078000810381134113415A40B800B800C000B83A
:1007900000B800B800B800B800B800C001B801B097
:1007A00001C800A00BC386C100B800B800B800B8EB
:1007B00000B800B800B801C000B040B000B800C038
:1007C00002A0076990227BB6BFEF955BD511570059
:1007D0001800180018001800180018001800180059
:1007E00018001800180018005510D66B1821570073
:1007F00057001900170018001800170056001300C2
:100800001800190018008D010303800380034203C0
:1008100081038003800380038003800380038003BF
:10082000C003C0034103C003030B52435873587302
:100830005873587358735873587358735873587360
:100840005873587358735873587358735873587350
:100850005873587358735873587358735873587340
:100860005873587358735873587358735873587330
:100870005873587358735873587358735873587320
:10088000587358735873587358735773587B587B01
:10089000977BCF41587B587B587358735873587364
:1008A00058735873587358735873587358735873F0
:1008B00058735873587358735873987B5873953A94
:1008C0008A03E105E005E0052006E105E005E00515
:1008D000E005E005E005E005E005E005E005E005F0
:1008E000E005E005E005E005E005E005E005E005E0
:1008F000E005E005E005E005E005E005E005E005D0
:10090000E005E105E00DC2130002421D2006E105ED
:10091000E005E00DE105E005210E27356B4E820D67
:10092000E0052006E005E005E005E005E005E1055D
:10093000E005E0052006E00D82052D0D350D35059D
:100940005405360D350D34053405340534053405AC
:10095000340D3405331D33755495532D540534151A
:10096000340534053405340534053405340554059F
:100970003505340D8E158405820DE105E00DE00D81
:1009800020062006E005E005E00581058105E0057B
:10099000E1158635E62DE005E005E005E005E0051A
:1009A000E005E00DE00DE00DE00DE005E005E005FF
:1009B000E005E005E005E005E005E005E005E0050F
:1009C000E005E005E005E005E005E005E005E005FF
:1009D000E005E005E005E005E005E005E005E005EF
:1009E000E005E005E005E10581052006E2058D133F
:1009F0004F3A4EA38EBB8EBB8EBB8EBB8EBB8EBBC7
:100A00008EBB8EBB8EBB8EBB8EBB8EBB8EBB8EBB9E
:100A10008EBB8EBB8EBB8EBB8EBB8EBB8EBB8EBB8E
:100A20008EBB8EBB8EBB8EBB8EBB8EBB8EBB8EBB7E
:100A30008EBB8EBB8EBB8EBB8EBB8EBB8EBB8EBB6E
:100A40008EBB8EBB8EBB8EBB8EBB8EBB8EBB8EBB5E
:100A50008EBB8EBB8EBB8EBB8EBB8EBB8EBB8EBB4E
:100A60008EBB8EBB8EBB8EBB8EBB8EBB8EBB8EBB3E
:100A70008EBB8EBB8EBB8EBB8EBB8EBB8EBB8EBB2E
:100A80008EBB8EBBCDABC21380038003800380037B
:100A9000800380038003800380038003800380033E
:100AA0008003800B8003015A00C001B801B800B870
:100AB00000B800B800B800B800B800C000B800B076
:100AC00001C841A00BB385B100B800B800B800B8A8
:100AD00000B800B800B801C000B040B000C001C00C
:100AE000029807614F227BBEFFE7D553D511560010
:100AF000170017001700170017001700170017003E
:100B000017001700170017005410976B17291700CC
:100B100017001700180018081708180055080F00CC
:100B20001608180017001101040381038003810BCC
:100B3000800380038003800380038003800380039D
:100B40008003810B800380034113125397739773C3
:100B50009773977397739773977397739773977345
:100B60009773977397739773977397739773977335
:100B70009773977397739773977397739773977325
:100B80009773977397739773977397739773977315
:100B90009773977397739773977397739773977305
:100BA00097739773977397739773977397739773F5
:100BB00096730F3A967397739773977397739773A8
:100BC00097739773977397739773977397739773D5
:100BD0009773976B977397739773976B976BD432E1
:100BE000C803E105E105E005E005E005E005E005F5
:100BF000E005E005E005E005E005E005E005E005CD
:100C0000E005E005E005E005E005E005E005E005BC
:100C1000E005E005E005E005E005E005E005E005AC
:100C2000E005820D811D03234001411D600E420538
:100C3000E00DE105E005E00DE005273D2C5E8215A5
:100C4000E005E105E005E005E005E005E005E0057B
:100C5000E005E005E005E005E1054D053405340D4E
:100C6000340D3505340534053405340534053405B3
:100C7000340D340D3315346D557D341D3405350D6B
:100C8000340534053405340534053405340D340D8C
:100C900035055305500DE305E00DE005E005E005E1
:100CA000E005E005E005E005E005E005E105E0051B
:100CB000E0158635E635E005E005E005E005E005F0
:100CC000E005E005E005E005E005E005E005E005FC
:100CD000E005E005E005E005E005E005E005E005EC
:100CE000E005E005E005E005E005E005E005E005DC
:100CF000E005E005E005E005E005E005E005E005CC
:100D0000E005E005E005E105E005E00D820D8C035E
:100D100050324FA38EBB8EBB8EBB8EBB8EBB8EBBA9
:100D20008EBB8EBB8EBB8EBB8EBB8EBB8EBB8EBB7B
:100D30008EBB8EBB8EBB8EBB8EBB8EBB8EBB8EBB6B
:100D40008EBB8EBB8EBB8EBB8EBB8EBB8EBB8EBB5B
:100D50008EBB8EBB8EBB8EBB8EBB8EBB8EBB8EBB4B
:100D60008EBB8EBB8EBB8EBB8EBB8EBB8EBB8EBB3B
:100D70008EBB8EBB8EBB8EBB8EBB8EBB8EBB8EBB2B
:100D80008EBB8EBB8EBB8EBB8EBB8EBB8EBB8EBB1B
:100D90008EBB8EBB8EBB8EBB8EBB8EBB8EBB8EBB0B
:100DA0008EBB8EBBCDAB8323800380038003800B7F
:100DB000800380038003800380038003800380031B
:100DC0008003800B410B015A00C000B800B800B886
:100DD00000B800B800B800B800B800B800C000B84B
:100DE00001C000A84CC386B900B800B800B800B86C
:100DF00000B800B800B800C001B800C040B800C0DA
:100E000001A80751501A7CBEFFE7D553D5115600F3
:100E1000170017001700170017001700170017001A
:100E200017001700170017005410976B17291700A9
:100E30001700170018001708560017005508100073
:100E40001600170017001101040381038003810BB2
:100E5000800380038003800380038003800380037A
:100E60008003810B800380034113125397739773A0
:100E70009773977397739773977397739773977322
:100E80009773977397739773977397739773977312
:100E90009773977397739773977397739773977302
:100EA00097739773977397739773977397739773F2
:100EB00097739773977397739773977397739773E2
:100EC00097739773977397739773977397739773D2
:100ED00096730F3A96739773977397739773977385
:100EE00097739773977397739773977397739773B2
:100EF0009773976B977397739773976B976BD432BE
:100F0000C803E105E105E005E005E005E005E005D1
:100F1000E005E005E005E005E005E005E005E005A9
:100F2000E005E005E005E005E005E005E005E00599
:100F3000E005E005E005E005E005E005E005E00589
:100F4000E005200681158212C000200D6006E10533
:100F5000E00DE105E005E00DE005273D2C5E821582
:100F6000E005E105E005E005E005E005E005E00558
:100F7000E005E005E005E005E1054D053405340D2B
:100F8000340D350534053405340534053405340590
:100F9000340D340D3315346D557D341D3405350D48
:100FA000340534053405340534053405340D340D69
:100FB00035055305500DE305E00DE005E005E005BE
:100FC000E005E005E005E005E005E005E105E005F8
:100FD000E0158635E635E005E005E005E005E005CD
:100FE000E005E005E005E005E005E005E005E005D9
:100FF000E005E005E005E005E005E005E005E005C9
:10100000E005E005E005E005E005E005E005E005B8
:10101000E005E005E005E005E005E005E005E005A8
:10102000E005E005E005E105E005E00D820D8C033B
:1010300050324FA38EBB8EBB8EBB8EBB8EBB8EBB86
:101040008EBB8EBB8EBB8EBB8EBB8EBB8EBB8EBB58
:101050008EBB8EBB8EBB8EBB8EBB8EBB8EBB8EBB48
:101060008EBB8EBB8EBB8EBB8EBB8EBB8EBB8EBB38
:101070008EBB8EBB8EBB8EBB8EBB8EBB8EBB8EBB28
:101080008EBB8EBB8EBB8EBB8EBB8EBB8EBB8EBB18
:101090008EBB8EBB8EBB8EBB8EBB8EBB8EBB8EBB08
:1010A0008EBB8EBB8EBB8EBB8EBB8EBB8EBB8EBBF8
:1010B0008EBB8EBB8EBB8EBB8EBB8EBB8EBB8EBBE8
:1010C0008EBB8EBBCDAB8323800380038003800B5C
:1010D00080038003800380038003800380038003F8
:1010E0008003800B410B015A00C000B800B800B863
:1010F00000B800B800B800B800B800B800C000B828
:1011000001C000A84CC386B900B800B800B800B848
:1011100000B800B800B800C001B800C040B800C0B6
:1011200001A80751501A7CBEFFE7D553D5115600D0
:1011300017001700170017001700170017001700F7
:1011400017001700170017005410976B1729170086
:101150001700170018001700550056005508110019
:101160001700560017001101040381038003810B4F
:101170008003800380038003800380038003800357
:101180008003810B8003800341131253977397737D
:1011900097739773977397739773977397739773FF
:1011A00097739773977397739773977397739773EF
:1011B00097739773977397739773977397739773DF
:1011C00097739773977397739773977397739773CF
:1011D00097739773977397739773977397739773BF
:1011E00097739773977397739773977397739773AF
:1011F00096730F3A96739773977397739773977362
:10120000977397739773977397739773977397738E
:101210009773976B977397739773976B976BD4329A
:10122000C803E105E105E005E005E005E005E005AE
:10123000E005E005E005E005E005E005E005E00586
:10124000E005E005E005E005E005E005E005E00576
:10125000E005E005E005E005E005E005E005E00566
:10126000E00520068215C2114100400C2006200630
:10127000E00DE105E005E00DE005273D2C5E82155F
:10128000E005E105E005E005E005E005E005E00535
:10129000E005E005E005E005E1054D053405340D08
:1012A000340D35053405340534053405340534056D
:1012B000340D340D3315346D557D341D3405350D25
:1012C000340534053405340534053405340D340D46
:1012D00035055305500DE305E00DE005E005E0059B
:1012E000E005E005E005E005E005E005E105E005D5
:1012F000E0158635E635E005E005E005E005E005AA
:10130000E005E005E005E005E005E005E005E005B5
:10131000E005E005E005E005E005E005E005E005A5
:10132000E005E005E005E005E005E005E005E00595
:10133000E005E005E005E005E005E005E005E00585
:10134000E005E005E005E105E005E00D820D8C0318
:1013500050324FA38EBB8EBB8EBB8EBB8EBB8EBB63
:101360008EBB8EBB8EBB8EBB8EBB8EBB8EBB8EBB35
:101370008EBB8EBB8EBB8EBB8EBB8EBB8EBB8EBB25
:101380008EBB8EBB8EBB8EBB8EBB8EBB8EBB8EBB15
:101390008EBB8EBB8EBB8EBB8EBB8EBB8EBB8EBB05
:1013A0008EBB8EBB8EBB8EBB8EBB8EBB8EBB8EBBF5
:1013B0008EBB8EBB8EBB8EBB8EBB8EBB8EBB8EBBE5
:1013C0008EBB8EBB8EBB8EBB8EBB8EBB8EBB8EBBD5
:1013D0008EBB8EBB8EBB8EBB8EBB8EBB8EBB8EBBC5
:1013E0008EBB8EBBCDAB8323800380038003800B39
:1013F00080038003800380038003800380038003D5
:101400008003800B410B015A00C000B800B800B83F
:1014100000B800B800B800B800B800B800C000B804
:1014200001C000A84CC386B900B800B800B800B825
:1014300000B800B800B800C001B800C040B800C093
:1014400001A80751501A7CBEFFE7D553D5115600AD
:1014500017001700170017001700170017001700D4
:1014600017001700170017005410976B1729170063
:10147000170017001800180016001700561011006A
:101480001808170017001101040381038003810B62
:101490008003800380038003800380038003800334
:1014A0008003810B8003800341131253977397735A
:1014B00097739773977397739773977397739773DC
:1014C00097739773977397739773977397739773CC
:1014D00097739773977397739773977397739773BC
:1014E00097739773977397739773977397739773AC
:1014F000977397739773977397739773977397739C
:10150000977397739773977397739773977397738B
:1015100096730F3A9673977397739773977397733E
:10152000977397739773977397739773977397736B
:101530009773976B977397739773976B976BD43277
:10154000C803E105E105E005E005E005E005E0058B
:10155000E005E005E005E005E005E005E005E00563
:10156000E005E005E005E005E005E005E005E00553
:10157000E005E005E005E005E005E005E005E00543
:10158000E005E005232542094200C013E10DE00516
:10159000E00DE105E005E00DE005273D2C5E82153C
:1015A000E005E105E005E005E005E005E005E00512
:1015B000E005E005E005E005E1054D053405340DE5
:1015C000340D35053405340534053405340534054A
:1015D000340D340D3315346D557D341D3405350D02
:1015E000340534053405340534053405340D340D23
:1015F00035055305500DE305E00DE005E005E00578
:10160000E005E005E005E005E005E005E105E005B1
:10161000E0158635E635E005E005E005E005E00586
:10162000E005E005E005E005E005E005E005E00592
:10163000E005E005E005E005E005E005E005E00582
:10164000E005E005E005E005E005E005E005E00572
:10165000E005E005E005E005E005E005E005E00562
:10166000E005E005E005E105E005E00D820D8C03F5
:1016700050324FA38EBB8EBB8EBB8EBB8EBB8EBB40
:101680008EBB8EBB8EBB8EBB8EBB8EBB8EBB8EBB12
:101690008EBB8EBB8EBB8EBB8EBB8EBB8EBB8EBB02
:1016A0008EBB8EBB8EBB8EBB8EBB8EBB8EBB8EBBF2
:1016B0008EBB8EBB8EBB8EBB8EBB8EBB8EBB8EBBE2
:1016C0008EBB8EBB8EBB8EBB8EBB8EBB8EBB8EBBD2
:1016D0008EBB8EBB8EBB8EBB8EBB8EBB8EBB8EBBC2
:1016E0008EBB8EBB8EBB8EBB8EBB8EBB8EBB8EBBB2
:1016F0008EBB8EBB8EBB8EBB8EBB8EBB8EBB8EBBA2
:101700008EBB8EBBCDAB8323800380038003800B15
:1017100080038003800380038003800380038003B1
:101720008003800B410B015A00C000B800B800B81C
:1017300000B800B800B800B800B800B800C000B8E1
:1017400001C000A84CC386B900B800B800B800B802
:1017500000B800B800B800C001B800C040B800C070
:1017600001A80751501A7CBEFFE7D553D51156008A
:1017700017001700170017001700170017001700B1
:1017800017001700170017005410976B1729170040
:1017900017001700180018001700180853184E08F3
:1017A0001610180017001101040381038003810B38
:1017B0008003800380038003800380038003800311
:1017C0008003810B80038003411312539773977337
:1017D00097739773977397739773977397739773B9
:1017E00097739773977397739773977397739773A9
:1017F0009773977397739773977397739773977399
:101800009773977397739773977397739773977388
:101810009773977397739773977397739773977378
:101820009773977397739773977397739773977368
:1018300096730F3A9673977397739773977397731B
:101840009773977397739773977397739773977348
:101850009773976B977397739773976B976BD43254
:10186000C803E105E105E005E005E005E005E00568
:10187000E005E005E005E005E005E005E005E00540
:10188000E005E005E005E005E005E005E005E00530
:10189000E005E005E005E005E005E005E005E00520
:1018A000E005E115E31C00018000400B810DE10D16
:1018B000E00DE105E005E00DE005273D2C5E821519
:1018C000E005E105E005E005E005E005E005E005EF
:1018D000E005E005E005E005E1054D053405340DC2
:1018E000340D350534053405340534053405340527
:1018F000340D340D3315346D557D341D3405350DDF
:10190000340534053405340534053405340D340DFF
:1019100035055305500DE305E00DE005E005E00554
:10192000E005E005E005E005E005E005E105E0058E
:10193000E0158635E635E005E005E005E005E00563
:10194000E005E005E005E005E005E005E005E0056F
:10195000E005E005E005E005E005E005E005E0055F
:10196000E005E005E005E005E005E005E005E0054F
:10197000E005E005E005E005E005E005E005E0053F
:10198000E005E005E005E105E005E00D820D8C03D2
:1019900050324FA38EBB8EBB8EBB8EBB8EBB8EBB1D
:1019A0008EBB8EBB8EBB8EBB8EBB8EBB8EBB8EBBEF
:1019B0008EBB8EBB8EBB8EBB8EBB8EBB8EBB8EBBDF
:1019C0008EBB8EBB8EBB8EBB8EBB8EBB8EBB8EBBCF
:1019D0008EBB8EBB8EBB8EBB8EBB8EBB8EBB8EBBBF
:1019E0008EBB8EBB8EBB8EBB8EBB8EBB8EBB8EBBAF
:1019F0008EBB8EBB8EBB8EBB8EBB8EBB8EBB8EBB9F
:101A00008EBB8EBB8EBB8EBB8EBB8EBB8EBB8EBB8E
:101A10008EBB8EBB8EBB8EBB8EBB8EBB8EBB8EBB7E
:101A20008EBB8EBBCDAB8323800380038003800BF2
:101A3000800380038003800380038003800380038E
:101A40008003800B410B015A00C000B800B800B8F9
:101A500000B800B800B800B800B800B800C000B8BE
:101A600001C000A84CC386B900B800B800B800B8DF
:101A700000B800B800B800C001B800C040B800C04D
:101A800001A80751501A7CBEFFE7D553D511560067
:101A9000170017001700170017001700170017008E
:101AA00017001700170017005410976B172917001D
:101AB0001700170018001700570057104C08450072
:101AC0000D00160017001101040381038003810B30
:101AD00080038003800380038003800380038003EE
:101AE0008003810B80038003411312539773977314
:101AF0009773977397739773977397739773977396
:101B00009773977397739773977397739773977385
:101B10009773977397739773977397739773977375
:101B20009773977397739773977397739773977365
:101B30009773977397739773977397739773977355
:101B40009773977397739773977397739773977345
:101B500096730F3A967397739773977397739773F8
:101B60009773977397739773977397739773977325
:101B70009773976B977397739773976B976BD43231
:101B8000C803E105E105E005E005E005E005E00545
:101B9000E005E005E005E005E005E005E005E0051D
:101BA000E005E005E005E005E005E005E005E0050D
:101BB000E005E005E005E005E005E005E005E005FD
:101BC000E005E00D420DC31B0113210D2006E105C8
:101BD000E00DE105E005E00DE005273D2C5E8215F6
:101BE000E005E105E005E005E005E005E005E005CC
:101BF000E005E005E005E005E1054D053405340D9F
:101C0000340D350534053405340534053405340503
:101C1000340D340D3315346D557D341D3405350DBB
:101C2000340534053405340534053405340D340DDC
:101C300035055305500DE305E00DE005E005E00531
:101C4000E005E005E005E005E005E005E105E0056B
:101C5000E0158635E635E005E005E005E005E00540
:101C6000E005E005E005E005E005E005E005E0054C
:101C7000E005E005E005E005E005E005E005E0053C
:101C8000E005E005E005E005E005E005E005E0052C
:101C9000E005E005E005E005E005E005E005E0051C
:101CA000E005E005E005E105E005E00D820D8C03AF
:101CB00050324FA38EBB8EBB8EBB8EBB8EBB8EBBFA
:101CC0008EBB8EBB8EBB8EBB8EBB8EBB8EBB8EBBCC
:101CD0008EBB8EBB8EBB8EBB8EBB8EBB8EBB8EBBBC
:101CE0008EBB8EBB8EBB8EBB8EBB8EBB8EBB8EBBAC
:101CF0008EBB8EBB8EBB8EBB8EBB8EBB8EBB8EBB9C
:101D00008EBB8EBB8EBB8EBB8EBB8EBB8EBB8EBB8B
:101D10008EBB8EBB8EBB8EBB8EBB8EBB8EBB8EBB7B
:101D20008EBB8EBB8EBB8EBB8EBB8EBB8EBB8EBB6B
:101D30008EBB8EBB8EBB8EBB8EBB8EBB8EBB8EBB5B
:101D40008EBB8EBBCDAB8323800380038003800BCF
:101D5000800380038003800380038003800380036B
:101D60008003800B410B015A00C000B800B800B8D6
:101D700000B800B800B800B800B800B800C000B89B
:101D800001C000A84CC386B900B800B800B800B8BC
:101D900000B800B800B800C001B800C040B800C02A
:101DA00001A80751501A7CBEFFEFD553D51156003C
:101DB000170017001700170017001700170017006B
:101DC00017001700170017005410976B17291700FA
:101DD0001800170017005600560855100808400054
:101DE0000B00160817001001030381038003410351
:101DF00080038003800380038003800380038003CB
:101E00008003810B800380034113125397739773F0
:101E10009773977397739773977397739773977372
:101E20009773977397739773977397739773977362
:101E30009773977397739773977397739773977352
:101E40009773977397739773977397739773977342
:101E50009773977397739773977397739773977332
:101E60009773977397739773977397739773977322
:101E700096730F3A967397739773977397739773D5
:101E80009773977397739773977397739773977302
:101E90009773976B977397739773976B976BD4320E
:101EA000C803E105E105E005E005E005E005E00522
:101EB000E005E005E005E005E005E005E005E005FA
:101EC000E005E005E005E005E005E005E005E005EA
:101ED000E005E005E005E00DE00DE105E005E00DC1
:101EE000E00DE10D810D242D4114E00D2006E105EA
:101EF000E00DE105E005E00DE005273D2C5E8215D3
:101F0000E005E105E005E005E005E005E005E005A8
:101F1000E005E005E005E005E1054D053405340D7B
:101F2000340D3505340534053405340534053405E0
:101F3000340D340D3315346D557D341D3405350D98
:101F4000340534053405340534053405340D340DB9
:101F500035055305500DE305E00DE005E005E0050E
:101F6000E005E005E005E005E005E005E105E00548
:101F7000E0158635E635E005E005E005E005E0051D
:101F8000E005E005E005E005E005E005E005E00529
:101F9000E005E005E005E005E005E005E005E00519
:101FA000E005E005E005E005E005E005E005E00509
:101FB000E005E005E005E005E005E005E005E005F9
:101FC000E005E005E005E105E005E00D820D8C038C
:101FD00050324FA38EBB8EBB8EBB8EBB8EBB8EBBD7
:101FE0008EBB8EBB8EBB8EBB8EBB8EBB8EBB8EBBA9
:101FF0008EBB8EBB8EBB8EBB8EBB8EBB8EBB8EBB99
:102000008EBB8EBB8EBB8EBB8EBB8EBB8EBB8EBB88
:102010008EBB8EBB8EBB8EBB8EBB8EBB8EBB8EBB78
:102020008EBB8EBB8EBB8EBB8EBB8EBB8EBB8EBB68
:102030008EBB8EBB8EBB8EBB8EBB8EBB8EBB8EBB58
:102040008EBB8EBB8EBB8EBB8EBB8EBB8EBB8EBB48
:102050008EBB8EBB8EBB8EBB8EBB8EBB8EBB8EBB38
:102060008EBB8EBBCDAB8323800380038003800BAC
:102070008003800380038003800380038003800348
:10208000800B800B4113016200B800B800B800B8A3
:1020900000B800B800B800B800B800B800B800B880
:1020A00000B800A84BC386B901B800B800B800B8A2
:1020B00000B800B800B800B801B001C040B000B826
:1020C00001A80751501A7CBEFFEFD5539519160091
:1020D0001700170017001700170017001700170048
:1020E00017001700170017005418976B18291800CD
:1020F0001800570017001800190056100B080100AF
:102100000E00170017001001040381038003410330
:1021100080038003800380038003800380038003A7
:102120008003810B800380034113125397739773CD
:10213000977397739773977397739773977397734F
:10214000977397739773977397739773977397733F
:10215000977397739773977397739773977397732F
:10216000977397739773977397739773977397731F
:10217000977397739773977397739773977397730F
:1021800097739773977397739773977397739773FF
:1021900096730F3A967397739773977397739773B2
:1021A00097739773977397739773977397739773DF
:1021B0009773976B977397739773976B976BD432EB
:1021C000C803E105E105E005E005E005E005E005FF
:1021D000E005E005E005E005E005E005E005E005D7
:1021E000E005E005E005E005E005E005E005E005C7
:1021F000E005E0052006200EE00DE105E00DE0150C
:10220000E10D810DE0052435010CE005E005E00558
:10221000E00DE105E005E00DE005273D2C5E8215AF
:10222000E005E105E005E005E005E005E005E00585
:10223000E005E005E005E005E1054D053405340D58
:10224000340D3505340534053405340534053405BD
:10225000340D340D3315346D557D341D3405350D75
:10226000340534053405340534053405340D340D96
:1022700035055305500DE305E00DE005E005E005EB
:10228000E005E005E005E005E005E005E105E00525
:10229000E0158635E635E005E005E005E005E005FA
:1022A000E005E005E005E005E005E005E005E00506
:1022B000E005E005E005E005E005E005E005E005F6
:1022C000E005E005E005E005E005E005E005E005E6
:1022D000E005E005E005E005E005E005E005E005D6
:1022E000E005E005E005E105E005E00D820D8C0369
:1022F00050324FA38EBB8EBB8EBB8EBB8EBB8EBBB4
:102300008EBB8EBB8EBB8EBB8EBB8EBB8EBB8EBB85
:102310008EBB8EBB8EBB8EBB8EBB8EBB8EBB8EBB75
:102320008EBB8EBB8EBB8EBB8EBB8EBB8EBB8EBB65
:102330008EBB8EBB8EBB8EBB8EBB8EBB8EBB8EBB55
:102340008EBB8EBB8EBB8EBB8EBB8EBB8EBB8EBB45
:102350008EBB8EBB8EBB8EBB8EBB8EBB8EBB8EBB35
:102360008EBB8EBB8EBB8EBB8EBB8EBB8EBB8EBB25
:102370008EBB8EBB8EBB8EBB8EBB8EBB8EBB8EBB15
:102380008EBB8EBBCDAB8323800380038003800B89
:102390008003800380038003800380038003800325
:1023A0008003800B4113016240B000C000B800C040
:1023B00000C000C000C000C000C000C000B800B82D
:1023C00000B800A84BC386B901C000C000C000C05F
:1023D00000C000C000C000C001B001B800B000B82B
:1023E00001B00759501A7CBEFFEFD553D51917001D
:1023F000180018001800180018001800180018001D
:1024000018001800180018009410D66B1729170030
:102410001700560017005700180055004C0802001E
:102420000F0017001A08D300C5024203800381037E
:102430008003800380038003800380038003800384
:102440008003810B800380034113125397739773AA
:10245000977397739773977397739773977397732C
:10246000977397739773977397739773977397731C
:10247000977397739773977397739773977397730C
:1024800097739773977397739773977397739773FC
:1024900097739773977397739773977397739773EC
:1024A00097739773977397739773977397739773DC
:1024B00096730F3A9673977397739773977397738F
:1024C00097739773977397739773977397739773BC
:1024D0009773976B977397739773976B976BD432C8
:1024E000C803E105E105E005E005E005E005E005DC
:1024F000E005E005E005E005E005E005E005E005B4
:10250000E005E005E005E005E005E005E005E005A3
:10251000E005E005E005E10DE10DE005E105810DD7
:10252000E105E0052006242D010CE005E005E005AD
:10253000E00DE105E005E00DE005273D2C5E82158C
:10254000E005E105E005E005E005E005E005E00562
:10255000E005E005E005E005E1054D053405340D35
:10256000340D35053405340534053405340534059A
:10257000340D340D3315346D557D341D3405350D52
:10258000340534053405340534053405340D340D73
:1025900035055305500DE305E00DE005E005E005C8
:1025A000E005E005E005E005E005E005E105E00502
:1025B000E0158635E635E005E005E005E005E005D7
:1025C000E005E005E005E005E005E005E005E005E3
:1025D000E005E005E005E005E005E005E005E005D3
:1025E000E005E005E005E005E005E005E005E005C3
:1025F000E005E005E005E005E005E005E005E005B3
:10260000E005E005E005E105E005E00D820D8C0345
:1026100050324FA38EBB8EBB8EBB8EBB8EBB8EBB90
:102620008EBB8EBB8EBB8EBB8EBB8EBB8EBB8EBB62
:102630008EBB8EBB8EBB8EBB8EBB8EBB8EBB8EBB52
:102640008EBB8EBB8EBB8EBB8EBB8EBB8EBB8EBB42
:102650008EBB8EBB8EBB8EBB8EBB8EBB8EBB8EBB32
:102660008EBB8EBB8EBB8EBB8EBB8EBB8EBB8EBB22
:102670008EBB8EBB8EBB8EBB8EBB8EBB8EBB8EBB12
:102680008EBB8EBB8EBB8EBB8EBB8EBB8EBB8EBB02
:102690008EBB8EBB8EBB8EBB8EBB8EBB8EBB8EBBF2
:1026A0008EBB8EBBCDAB8323800380038003800B66
:1026B0008003800380038003800380038003800302
:1026C00080038003410B016240B800D000C800B80D
:1026D00000B800B800B800B800B800B800B000B04A
:1026E00000B800A04BBB86B900B800B800B800B86D
:1026F00000B800B800B800B801B001B840A800B8F0
:1027000001A80751501A7CBEFFEFD553D4195610BB
:102710001710171017101710171017101710171081
:1027200017101710171017105418976B172918083F
:102730001800180019001710171016104F20040069
:102740001110560894084D01020380038003810391
:102750008003800380038003800380038003800361
:102760008003810B80038003411312539773977387
:102770009773977397739773977397739773977309
:1027800097739773977397739773977397739773F9
:1027900097739773977397739773977397739773E9
:1027A00097739773977397739773977397739773D9
:1027B00097739773977397739773977397739773C9
:1027C00097739773977397739773977397739773B9
:1027D00096730F3A9673977397739773977397736C
:1027E0009773977397739773977397739773977399
:1027F0009773976B977397739773976B976BD432A5
:10280000C803E105E105E005E005E005E005E005B8
:10281000E005E005E005E005E005E005E005E00590
:10282000E005E005E005E005E005E005E005E00580
:10283000E005E005811D4225811DE00DE00DE00D64
:102840002006200620062425010CE105E005E00D08
:10285000E00DE105E005E00DE005273D2C5E821569
:10286000E005E105E005E005E005E005E005E0053F
:10287000E005E005E005E005E1054D053405340D12
:10288000340D350534053405340534053405340577
:10289000340D340D3315346D557D341D3405350D2F
:1028A000340534053405340534053405340D340D50
:1028B00035055305500DE305E00DE005E005E005A5
:1028C000E005E005E005E005E005E005E105E005DF
:1028D000E0158635E635E005E005E005E005E005B4
:1028E000E005E005E005E005E005E005E005E005C0
:1028F000E005E005E005E005E005E005E005E005B0
:10290000E005E005E005E005E005E005E005E0059F
:10291000E005E005E005E005E005E005E005E0058F
:10292000E005E005E005E105E005E00D820D8C0322
:1029300050324FA38EBB8EBB8EBB8EBB8EBB8EBB6D
:102940008EBB8EBB8EBB8EBB8EBB8EBB8EBB8EBB3F
:102950008EBB8EBB8EBB8EBB8EBB8EBB8EBB8EBB2F
:102960008EBB8EBB8EBB8EBB8EBB8EBB8EBB8EBB1F
:102970008EBB8EBB8EBB8EBB8EBB8EBB8EBB8EBB0F
:102980008EBB8EBB8EBB8EBB8EBB8EBB8EBB8EBBFF
:102990008EBB8EBB8EBB8EBB8EBB8EBB8EBB8EBBEF
:1029A0008EBB8EBB8EBB8EBB8EBB8EBB8EBB8EBBDF
:1029B0008EBB8EBB8EBB8EBB8EBB8EBB8EBB8EBBCF
:1029C0008EBB8EBBCDAB8323800380038003800B43
:1029D00080038003800380038003800380038003DF
:1029E00040138013411B025A40A001A841A000B827
:1029F00000B800B800B800B800B800B800C000C007
:102A000000C800B00BCB86C900C000B800B800B841
:102A100000B800B800B800C000B800C040B800C09E
:102A200001B80761501A7CBEBFEFD5539311560011
:102A300017001700170017001700170017001700DE
:102A400017001700170017005410D77316295608DF
:102A50001608560817081700180017005208080033
:102A60001400180017081109850A42038003800327
:102A7000800380038003800380038003800380033E
:102A80008003810B80038003411312539773977364
:102A900097739773977397739773977397739773E6
:102AA00097739773977397739773977397739773D6
:102AB00097739773977397739773977397739773C6
:102AC00097739773977397739773977397739773B6
:102AD00097739773977397739773977397739773A6
:102AE0009773977397739773977397739773977396
:102AF00096730F3A96739773977397739773977349
:102B00009773977397739773977397739773977375
:102B10009773976B977397739773976B976BD43281
:102B2000C803E105E105E005E005E005E005E00595
:102B3000E005E005E005E005E005E005E005E0056D
:102B4000E005E005E005E005E005E005E005E0055D
:102B5000E005E005E10D20066006E10DE115820DBE
:102B6000E10DE10D20062425010CE005E00DE00D4E
:102B7000E00DE105E005E00DE005273D2C5E821546
:102B8000E005E105E005E005E005E005E005E0051C
:102B9000E005E005E005E005E1054D053405340DEF
:102BA000340D350534053405340534053405340554
:102BB000340D340D3315346D557D341D3405350D0C
:102BC000340534053405340534053405340D340D2D
:102BD00035055305500DE305E00DE005E005E00582
:102BE000E005E005E005E005E005E005E105E005BC
:102BF000E0158635E635E005E005E005E005E00591
:102C0000E005E005E005E005E005E005E005E0059C
:102C1000E005E005E005E005E005E005E005E0058C
:102C2000E005E005E005E005E005E005E005E0057C
:102C3000E005E005E005E005E005E005E005E0056C
:102C4000E005E005E005E105E005E00D820D8C03FF
:102C500050324FA38EBB8EBB8EBB8EBB8EBB8EBB4A
:102C60008EBB8EBB8EBB8EBB8EBB8EBB8EBB8EBB1C
:102C70008EBB8EBB8EBB8EBB8EBB8EBB8EBB8EBB0C
:102C80008EBB8EBB8EBB8EBB8EBB8EBB8EBB8EBBFC
:102C90008EBB8EBB8EBB8EBB8EBB8EBB8EBB8EBBEC
:102CA0008EBB8EBB8EBB8EBB8EBB8EBB8EBB8EBBDC
:102CB0008EBB8EBB8EBB8EBB8EBB8EBB8EBB8EBBCC
:102CC0008EBB8EBB8EBB8EBB8EBB8EBB8EBB8EBBBC
:102CD0008EBB8EBB8EBB8EBB8EBB8EBB8EBB8EBBAC
:102CE0008EBB8EBBCDAB8323800380038003800B20
:102CF00080038003800380038003800380038003BC
:102D00008003800B411B026A00B801C801C800C0E3
:102D100000C000C000C000C000C000B800B000B0DB
:102D200001B841A80BBB86B901C000C000C000C0FB
:102D300000C000C000C000B001A801B040A800B0B1
:102D400001A80751501A7CBE7EE71554131AD639D4
:102D5000D639D639D639D639D639D639D639D639FB
:102D6000D639D639D639D63914425584554AD6394A
:102D7000D631D539D639D541D639D5391342861809
:102D8000D541D631D6319232441381038003810379
:102D9000800380038003800380038003800380031B
:102DA0008003810B80038003411312539773977341
:102DB00097739773977397739773977397739773C3
:102DC00097739773977397739773977397739773B3
:102DD00097739773977397739773977397739773A3
:102DE0009773977397739773977397739773977393
:102DF0009773977397739773977397739773977383
:102E00009773977397739773977397739773977372
:102E100096730F3A96739773977397739773977325
:102E20009773977397739773977397739773977352
:102E30009773976B977397739773976B976BD4325E
:102E4000C803E105E105E005E005E005E005E00572
:102E5000E005E005E005E005E005E005E005E0054A
:102E6000E005E005E005E005E005E005E005E0053A
:102E7000E005E005410C4005E10DE524C212410AE0
:102E8000820AE2148105E424400CE005E005E00D2F
:102E9000E00DE105E005E00DE005273D2C5E821523
:102EA000E005E105E005E005E005E005E005E005F9
:102EB000E005E005E005E005E1054D053405340DCC
:102EC000340D350534053405340534053405340531
:102ED000340D340D3315346D557D341D3405350DE9
:102EE000340534053405340534053405340D340D0A
:102EF00035055305500DE305E00DE005E005E0055F
:102F0000E005E005E005E005E005E005E105E00598
:102F1000E0158635E635E005E005E005E005E0056D
:102F2000E005E005E005E005E005E005E005E00579
:102F3000E005E005E005E005E005E005E005E00569
:102F4000E005E005E005E005E005E005E005E00559
:102F5000E005E005E005E005E005E005E005E00549
:102F6000E005E005E005E105E005E00D820D8C03DC
:102F700050324FA38EBB8EBB8EBB8EBB8EBB8EBB27
:102F80008EBB8EBB8EBB8EBB8EBB8EBB8EBB8EBBF9
:102F90008EBB8EBB8EBB8EBB8EBB8EBB8EBB8EBBE9
:102FA0008EBB8EBB8EBB8EBB8EBB8EBB8EBB8EBBD9
:102FB0008EBB8EBB8EBB8EBB8EBB8EBB8EBB8EBBC9
:102FC0008EBB8EBB8EBB8EBB8EBB8EBB8EBB8EBBB9
:102FD0008EBB8EBB8EBB8EBB8EBB8EBB8EBB8EBBA9
:102FE0008EBB8EBB8EBB8EBB8EBB8EBB8EBB8EBB99
:102FF0008EBB8EBB8EBB8EBB8EBB8EBB8EBB8EBB89
:103000008EBB8EBBCDAB8323800380038003800BFC
:103010008003800380038003800380038003800398
:10302000800380038103834AC6A987B186A186A94C
:1030300086A986A986A986A986A986A986B186B108
:1030400086B9C6A9CEABCAB286B186A986A986A919
:1030500086A986A986B185B186A986B1C6A9C6B951
:10306000C7A90B52501A7CBE3DDF1454121A576385
:10307000176B176B176B176B176B176B176B176B40
:10308000176B176B176B176B5673F5945873586360
:10309000575B5663176B1673176B17635673C6200F
:1030A00018735863175393538313810B80034103A1
:1030B00080038003800380038003800380038003F8
:1030C0008003810B8003800341131253977397731E
:1030D00097739773977397739773977397739773A0
:1030E0009773977397739773977397739773977390
:1030F0009773977397739773977397739773977380
:10310000977397739773977397739773977397736F
:10311000977397739773977397739773977397735F
:10312000977397739773977397739773977397734F
:1031300096730F3A96739773977397739773977302
:10314000977397739773977397739773977397732F
:103150009773976B977397739773976B976BD4323B
:10316000C803E105E105E005E005E005E005E0054F
:10317000E005E005E005E005E005E005E005E00527
:10318000E005E005E005E005E005E005E005E00517
:10319000200EE005C212A0148215410A4113221D1F
:1031A000420B8002420D2535400C2006E005E1056A
:1031B000E00DE105E005E00DE005273D2C5E821500
:1031C000E005E105E005E005E005E005E005E005D6
:1031D000E005E005E005E005E1054D053405340DA9
:1031E000340D35053405340534053405340534050E
:1031F000340D340D3315346D557D341D3405350DC6
:10320000340534053405340534053405340D340DE6
:1032100035055305500DE305E00DE005E005E0053B
:10322000E005E005E005E005E005E005E105E00575
:10323000E0158635E635E005E005E005E005E0054A
:10324000E005E005E005E005E005E005E005E00556
:10325000E005E005E005E005E005E005E005E00546
:10326000E005E005E005E005E005E005E005E00536
:10327000E005E005E005E005E005E005E005E00526
:10328000E005E005E005E105E005E00D820D8C03B9
:1032900050324FA38EBB8EBB8EBB8EBB8EBB8EBB04
:1032A0008EBB8EBB8EBB8EBB8EBB8EBB8EBB8EBBD6
:1032B0008EBB8EBB8EBB8EBB8EBB8EBB8EBB8EBBC6
:1032C0008EBB8EBB8EBB8EBB8EBB8EBB8EBB8EBBB6
:1032D0008EBB8EBB8EBB8EBB8EBB8EBB8EBB8EBBA6
:1032E0008EBB8EBB8EBB8EBB8EBB8EBB8EBB8EBB96
:1032F0008EBB8EBB8EBB8EBB8EBB8EBB8EBB8EBB86
:103300008EBB8EBB8EBB8EBB8EBB8EBB8EBB8EBB75
:103310008EBB8EBB8EBB8EBB8EBB8EBB8EBB8EBB65
:103320008EBB8EBBCDAB8323800380038003800BD9
:103330008003800380038003800380038003800375
:10334000800B8003410B05534BCB0DCB0CBB0CC347
:103350000CC30CC30CC30CC30CC30CC34BCB4CCB66
:103360000CD30CC350A48DBB0CCB0CC30CC30CC32F
:103370000CC30CC30CCB0CCB0CC30CCB0BBB0BCBBF
:103380000DBBCF5A501A7CBEBEDFD553D4115508A1
:10339000560856085608560856085608560856083D
:1033A0005608560856085608931896731629150895
:1033B00056085508560856085508560054100D0072
:1033C0005608160016081001C3028103800381030A
:1033D00080038003800380038003800380038003D5
:1033E0008003810B800380034113125397739773FB
:1033F000977397739773977397739773977397737D
:10340000977397739773977397739773977397736C
:10341000977397739773977397739773977397735C
:10342000977397739773977397739773977397734C
:10343000977397739773977397739773977397733C
:10344000977397739773977397739773977397732C
:1034500096730F3A967397739773977397739773DF
:10346000977397739773977397739773977397730C
:103470009773976B977397739773976B976BD43218
:10348000C803E105E105E005E005E005E005E0052C
:10349000E005E005E005E005E005E005E005E00504
:1034A000E005E005E005E005E005E005E005E005F4
:1034B000E10DE005C2120114841D400A2325810597
:1034C000E20D831AE10C2325400CE10DE0052006F6
:1034D000E00DE105E005E00DE005273D2C5E8215DD
:1034E000E005E105E005E005E005E005E005E005B3
:1034F000E005E005E005E005E1054D053405340D86
:10350000340D3505340534053405340534053405EA
:10351000340D340D3315346D557D341D3405350DA2
:10352000340534053405340534053405340D340DC3
:1035300035055305500DE305E00DE005E005E00518
:10354000E005E005E005E005E005E005E105E00552
:10355000E0158635E635E005E005E005E005E00527
:10356000E005E005E005E005E005E005E005E00533
:10357000E005E005E005E005E005E005E005E00523
:10358000E005E005E005E005E005E005E005E00513
:10359000E005E005E005E005E005E005E005E00503
:1035A000E005E005E005E105E005E00D820D8C0396
:1035B00050324FA38EBB8EBB8EBB8EBB8EBB8EBBE1
:1035C0008EBB8EBB8EBB8EBB8EBB8EBB8EBB8EBBB3
:1035D0008EBB8EBB8EBB8EBB8EBB8EBB8EBB8EBBA3
:1035E0008EBB8EBB8EBB8EBB8EBB8EBB8EBB8EBB93
:1035F0008EBB8EBB8EBB8EBB8EBB8EBB8EBB8EBB83
:103600008EBB8EBB8EBB8EBB8EBB8EBB8EBB8EBB72
:103610008EBB8EBB8EBB8EBB8EBB8EBB8EBB8EBB62
:103620008EBB8EBB8EBB8EBB8EBB8EBB8EBB8EBB52
:103630008EBB8EBB8EBB8EBB8EBB8EBB8EBB8EBB42
:103640008EBB8EBBCDAB8323800380038003800BB6
:103650008003800380038003800380038003800352
:103660008003800B410B425A00B801B001B000B09A
:1036700000B000B000B000B000B000B000B000B0CA
:1036800001B000A04CBB86B101B000B000B000B0EA
:1036900000B000B000B000B001A801B040A800B078
:1036A00001A00851501A7CBEFFE7D553D511560032
:1036B0001700170017001700170017001700170052
:1036C00017001700170017005410976B17291700E1
:1036D00017001700180017085600180055081000AA
:1036E0001608170017001101040381038003810BE2
:1036F00080038003800380038003800380038003B2
:103700008003810B800380034113125397739773D7
:103710009773977397739773977397739773977359
:103720009773977397739773977397739773977349
:103730009773977397739773977397739773977339
:103740009773977397739773977397739773977329
:103750009773977397739773977397739773977319
:103760009773977397739773977397739773977309
:1037700096730F3A967397739773977397739773BC
:1037800097739773977397739773977397739773E9
:103790009773976B977397739773976B976BD432F5
:1037A000C803E105E105E005E005E005E005E00509
:1037B000E005E005E005E005E005E005E005E005E1
:1037C000E005E005E005E005E005E005E005E005D1
:1037D000E105E00542130002410A00024005E00550
:1037E0004325010A210D231D400C8115E00520060B
:1037F000E00DE105E005E00DE005273D2C5E8215BA
:10380000E005E105E005E005E005E005E005E0058F
:10381000E005E005E005E005E1054D053405340D62
:10382000340D3505340534053405340534053405C7
:10383000340D340D3315346D557D341D3405350D7F
:10384000340534053405340534053405340D340DA0
:1038500035055305500DE305E00DE005E005E005F5
:10386000E005E005E005E005E005E005E105E0052F
:10387000E0158635E635E005E005E005E005E00504
:10388000E005E005E005E005E005E005E005E00510
:10389000E005E005E005E005E005E005E005E00500
:1038A000E005E005E005E005E005E005E005E005F0
:1038B000E005E005E005E005E005E005E005E005E0
:1038C000E005E005E005E105E005E00D820D8C0373
:1038D00050324FA38EBB8EBB8EBB8EBB8EBB8EBBBE
:1038E0008EBB8EBB8EBB8EBB8EBB8EBB8EBB8EBB90
:1038F0008EBB8EBB8EBB8EBB8EBB8EBB8EBB8EBB80
:103900008EBB8EBB8EBB8EBB8EBB8EBB8EBB8EBB6F
:103910008EBB8EBB8EBB8EBB8EBB8EBB8EBB8EBB5F
:103920008EBB8EBB8EBB8EBB8EBB8EBB8EBB8EBB4F
:103930008EBB8EBB8EBB8EBB8EBB8EBB8EBB8EBB3F
:103940008EBB8EBB8EBB8EBB8EBB8EBB8EBB8EBB2F
:103950008EBB8EBB8EBB8EBB8EBB8EBB8EBB8EBB1F
:103960008EBB8EBBCDAB8323800380038003800B93
:10397000800380038003800380038003800380032F
:103980008003800B410B015A00C000B800B800B89A
:1039900000B800B800B800B800B800B800C000B85F
:1039A00001C000A84CC386B900B800B800B800B880
:1039B00000B800B800B800C001B800C040B800C0EE
:1039C00001A80751501A7CBEFFE7D553D511560008
:1039D000170017001700170017001700170017002F
:1039E00017001700170017005410976B17291700BE
:1039F0001700170018001708560018005508100087
:103A00001608170017001101040381038003810BBE
:103A1000800380038003800380038003800380038E
:103A20008003810B800380034113125397739773B4
:103A30009773977397739773977397739773977336
:103A40009773977397739773977397739773977326
:103A50009773977397739773977397739773977316
:103A60009773977397739773977397739773977306
:103A700097739773977397739773977397739773F6
:103A800097739773977397739773977397739773E6
:103A900096730F3A96739773977397739773977399
:103AA00097739773977397739773977397739773C6
:103AB0009773976B977397739773976B976BD432D2
:103AC000C803E105E105E005E005E005E005E005E6
:103AD000E005E005E005E005E005E005E005E005BE
:103AE000E005E005E005E005E005E005E005E005AE
:103AF000E005E005801D4125E22442148105820590
:103B0000820A4103E1058325410C810DE005E005B2
:103B1000E00DE105E005E00DE005273D2C5E821596
:103B2000E005E105E005E005E005E005E005E0056C
:103B3000E005E005E005E005E1054D053405340D3F
:103B4000340D3505340534053405340534053405A4
:103B5000340D340D3315346D557D341D3405350D5C
:103B6000340534053405340534053405340D340D7D
:103B700035055305500DE305E00DE005E005E005D2
:103B8000E005E005E005E005E005E005E105E0050C
:103B9000E0158635E635E005E005E005E005E005E1
:103BA000E005E005E005E005E005E005E005E005ED
:103BB000E005E005E005E005E005E005E005E005DD
:103BC000E005E005E005E005E005E005E005E005CD
:103BD000E005E005E005E005E005E005E005E005BD
:103BE000E005E005E005E105E005E00D820D8C0350
:103BF00050324FA38EBB8EBB8EBB8EBB8EBB8EBB9B
:103C00008EBB8EBB8EBB8EBB8EBB8EBB8EBB8EBB6C
:103C10008EBB8EBB8EBB8EBB8EBB8EBB8EBB8EBB5C
:103C20008EBB8EBB8EBB8EBB8EBB8EBB8EBB8EBB4C
:103C30008EBB8EBB8EBB8EBB8EBB8EBB8EBB8EBB3C
:103C40008EBB8EBB8EBB8EBB8EBB8EBB8EBB8EBB2C
:103C50008EBB8EBB8EBB8EBB8EBB8EBB8EBB8EBB1C
:103C60008EBB8EBB8EBB8EBB8EBB8EBB8EBB8EBB0C
:103C70008EBB8EBB8EBB8EBB8EBB8EBB8EBB8EBBFC
:103C80008EBB8EBBCDAB8323800380038003800B70
:103C9000800380038003800380038003800380030C
:103CA0008003800B410B015A00C000B800B800B877
:103CB00000B800B800B800B800B800B800C000B83C
:103CC00001C000A84CC386B900B800B800B800B85D
:103CD00000B800B800B800C001B800C040B800C0CB
:103CE00001A80751501A7CBEFFE7D553D5115600E5
:103CF000170017001700170017001700170017000C
:103D000017001700170017005410976B172917009A
:103D10001700170018001708560018005508100063
:103D20001608170017001101040381038003810B9B
:103D3000800380038003800380038003800380036B
:103D40008003810B80038003411312539773977391
:103D50009773977397739773977397739773977313
:103D60009773977397739773977397739773977303
:103D700097739773977397739773977397739773F3
:103D800097739773977397739773977397739773E3
:103D900097739773977397739773977397739773D3
:103DA00097739773977397739773977397739773C3
:103DB00096730F3A96739773977397739773977376
:103DC00097739773977397739773977397739773A3
:103DD0009773976B977397739773976B976BD432AF
:103DE000C803E105E105E005E005E005E005E005C3
:103DF000E005E005E005E005E005E005E005E0059B
:103E0000E005E005E005E005E005E005E005E0058A
:103E1000E005E005810D820520062106E005200E63
:103E2000E21C82152006431D4004E10DE005E0057B
:103E3000E00DE105E005E00DE005273D2C5E821573
:103E4000E005E105E005E005E005E005E005E00549
:103E5000E005E005E005E005E1054D053405340D1C
:103E6000340D350534053405340534053405340581
:103E7000340D340D3315346D557D341D3405350D39
:103E8000340534053405340534053405340D340D5A
:103E900035055305500DE305E00DE005E005E005AF
:103EA000E005E005E005E005E005E005E105E005E9
:103EB000E0158635E635E005E005E005E005E005BE
:103EC000E005E005E005E005E005E005E005E005CA
:103ED000E005E005E005E005E005E005E005E005BA
:103EE000E005E005E005E005E005E005E005E005AA
:103EF000E005E005E005E005E005E005E005E0059A
:103F0000E005E005E005E105E005E00D820D8C032C
:103F100050324FA38EBB8EBB8EBB8EBB8EBB8EBB77
:103F20008EBB8EBB8EBB8EBB8EBB8EBB8EBB8EBB49
:103F30008EBB8EBB8EBB8EBB8EBB8EBB8EBB8EBB39
:103F40008EBB8EBB8EBB8EBB8EBB8EBB8EBB8EBB29
:103F50008EBB8EBB8EBB8EBB8EBB8EBB8EBB8EBB19
:103F60008EBB8EBB8EBB8EBB8EBB8EBB8EBB8EBB09
:103F70008EBB8EBB8EBB8EBB8EBB8EBB8EBB8EBBF9
:103F80008EBB8EBB8EBB8EBB8EBB8EBB8EBB8EBBE9
:103F90008EBB8EBB8EBB8EBB8EBB8EBB8EBB8EBBD9
:103FA0008EBB8EBBCDAB8323800380038003800B4D
:103FB00080038003800380038003800380038003E9
:103FC0008003800B410B015A00C000B800B800B854
:103FD00000B800B800B800B800B800B800C000B819
:103FE00001C000A84CC386B900B800B800B800B83A
:103FF00000B800B800B800C001B800C040B800C0A8
:1040000001A80751501A7CBEFFE7D553D5115600C1
:1040100017001700170017001700170017001700E8
:1040200017001700170017005410976B1729170077
:104030001700170018001708560018005508100040
:104040001608170017001101040381038003810B78
:104050008003800380038003800380038003800348
:104060008003810B8003800341131253977397736E
:1040700097739773977397739773977397739773F0
:1040800097739773977397739773977397739773E0
:1040900097739773977397739773977397739773D0
:1040A00097739773977397739773977397739773C0
:1040B00097739773977397739773977397739773B0
:1040C00097739773977397739773977397739773A0
:1040D00096730F3A96739773977397739773977353
:1040E0009773977397739773977397739773977380
:1040F0009773976B977397739773976B976BD4328C
:10410000C803E105E105E005E005E005E005E0059F
:10411000E005E005E005E005E005E005E005E00577
:10412000E005E005E005E005E005E005E005E00567
:10413000E005E005410B0103E21C421DE1056006BC
:104140008215E10D20064325410CE005E005E00D58
:10415000E00DE105E005E00DE005273D2C5E821550
:10416000E005E105E005E005E005E005E005E00526
:10417000E005E005E005E005E1054D053405340DF9
:10418000340D35053405340534053405340534055E
:10419000340D340D3315346D557D341D3405350D16
:1041A000340534053405340534053405340D340D37
:1041B00035055305500DE305E00DE005E005E0058C
:1041C000E005E005E005E005E005E005E105E005C6
:1041D000E0158635E635E005E005E005E005E0059B
:1041E000E005E005E005E005E005E005E005E005A7
:1041F000E005E005E005E005E005E005E005E00597
:10420000E005E005E005E005E005E005E005E00586
:10421000E005E005E005E005E005E005E005E00576
:10422000E005E005E005E105E005E00D820D8C0309
:1042300050324FA38EBB8EBB8EBB8EBB8EBB8EBB54
:104240008EBB8EBB8EBB8EBB8EBB8EBB8EBB8EBB26
:104250008EBB8EBB8EBB8EBB8EBB8EBB8EBB8EBB16
:104260008EBB8EBB8EBB8EBB8EBB8EBB8EBB8EBB06
:104270008EBB8EBB8EBB8EBB8EBB8EBB8EBB8EBBF6
:104280008EBB8EBB8EBB8EBB8EBB8EBB8EBB8EBBE6
:104290008EBB8EBB8EBB8EBB8EBB8EBB8EBB8EBBD6
:1042A0008EBB8EBB8EBB8EBB8EBB8EBB8EBB8EBBC6
:1042B0008EBB8EBB8EBB8EBB8EBB8EBB8EBB8EBBB6
:1042C0008EBB8EBBCDAB8323800380038003800B2A
:1042D00080038003800380038003800380038003C6
:1042E0008003800B410B015A00C000B800B800B831
:1042F00000B800B800B800B800B800B800C000B8F6
:1043000001C000A84CC386B900B800B800B800B816
:1043100000B800B800B800C001B800C040B800C084
:1043200001A80751501A7CBEFFE7D553D51156009E
:1043300017001700170017001700170017001700C5
:1043400017001700170017005410976B1729170054
:10435000170017001800170856001800550810001D
:104360001608170017001101040381038003810B55
:104370008003800380038003800380038003800325
:104380008003810B8003800341131253977397734B
:1043900097739773977397739773977397739773CD
:1043A00097739773977397739773977397739773BD
:1043B00097739773977397739773977397739773AD
:1043C000977397739773977397739773977397739D
:1043D000977397739773977397739773977397738D
:1043E000977397739773977397739773977397737D
:1043F00096730F3A96739773977397739773977330
:10440000977397739773977397739773977397735C
:104410009773976B977397739773976B976BD43268
:10442000C803E105E105E005E005E005E005E0057C
:10443000E005E005E005E005E005E005E005E00554
:10444000E005E005E005E005E005E005E005E00544
:10445000E005E0058312441A410A01132115210EDB
:10446000E10DE00D2006242D010CE005E005E0053E
:10447000E00DE105E005E00DE005273D2C5E82152D
:10448000E005E105E005E005E005E005E005E00503
:10449000E005E005E005E005E1054D053405340DD6
:1044A000340D35053405340534053405340534053B
:1044B000340D340D3315346D557D341D3405350DF3
:1044C000340534053405340534053405340D340D14
:1044D00035055305500DE305E00DE005E005E00569
:1044E000E005E005E005E005E005E005E105E005A3
:1044F000E0158635E635E005E005E005E005E00578
:10450000E005E005E005E005E005E005E005E00583
:10451000E005E005E005E005E005E005E005E00573
:10452000E005E005E005E005E005E005E005E00563
:10453000E005E005E005E005E005E005E005E00553
:10454000E005E005E005E105E005E00D820D8C03E6
:1045500050324FA38EBB8EBB8EBB8EBB8EBB8EBB31
:104560008EBB8EBB8EBB8EBB8EBB8EBB8EBB8EBB03
:104570008EBB8EBB8EBB8EBB8EBB8EBB8EBB8EBBF3
:104580008EBB8EBB8EBB8EBB8EBB8EBB8EBB8EBBE3
:104590008EBB8EBB8EBB8EBB8EBB8EBB8EBB8EBBD3
:1045A0008EBB8EBB8EBB8EBB8EBB8EBB8EBB8EBBC3
:1045B0008EBB8EBB8EBB8EBB8EBB8EBB8EBB8EBBB3
:1045C0008EBB8EBB8EBB8EBB8EBB8EBB8EBB8EBBA3
:1045D0008EBB8EBB8EBB8EBB8EBB8EBB8EBB8EBB93
:1045E0008EBB8EBBCDAB8323800380038003800B07
:1045F00080038003800380038003800380038003A3
:104600008003800B410B015A00C000B800B800B80D
:1046100000B800B800B800B800B800B800C000B8D2
:1046200001C000A84CC386B900B800B800B800B8F3
:1046300000B800B800B800C001B800C040B800C061
:1046400001A80751501A7CBEFFE7D553D51156007B
:1046500017001700170017001700170017001700A2
:1046600017001700170017005410976B1729170031
:1046700017001700180017085600180055081000FA
:104680001608170017001101040381038003810B32
:104690008003800380038003800380038003800302
:1046A0008003810B80038003411312539773977328
:1046B00097739773977397739773977397739773AA
:1046C000977397739773977397739773977397739A
:1046D000977397739773977397739773977397738A
:1046E000977397739773977397739773977397737A
:1046F000977397739773977397739773977397736A
:104700009773977397739773977397739773977359
:1047100096730F3A9673977397739773977397730C
:104720009773977397739773977397739773977339
:104730009773976B977397739773976B976BD43245
:10474000C803E105E105E005E005E005E005E00559
:10475000E005E005E005E005E005E005E005E00531
:10476000E005E005E005E005E005E005E005E00521
:10477000E005E005C112E10CE10D8213010A020B14
:10478000410DE00DE10DE534010CE0052006E005EA
:10479000E00DE105E005E00DE005273D2C5E82150A
:1047A000E005E105E005E005E005E005E005E005E0
:1047B000E005E005E005E005E1054D053405340DB3
:1047C000340D350534053405340534053405340518
:1047D000340D340D3315346D557D341D3405350DD0
:1047E000340534053405340534053405340D340DF1
:1047F00035055305500DE305E00DE005E005E00546
:10480000E005E005E005E005E005E005E105E0057F
:10481000E0158635E635E005E005E005E005E00554
:10482000E005E005E005E005E005E005E005E00560
:10483000E005E005E005E005E005E005E005E00550
:10484000E005E005E005E005E005E005E005E00540
:10485000E005E005E005E005E005E005E005E00530
:10486000E005E005E005E105E005E00D820D8C03C3
:1048700050324FA38EBB8EBB8EBB8EBB8EBB8EBB0E
:104880008EBB8EBB8EBB8EBB8EBB8EBB8EBB8EBBE0
:104890008EBB8EBB8EBB8EBB8EBB8EBB8EBB8EBBD0
:1048A0008EBB8EBB8EBB8EBB8EBB8EBB8EBB8EBBC0
:1048B0008EBB8EBB8EBB8EBB8EBB8EBB8EBB8EBBB0
:1048C0008EBB8EBB8EBB8EBB8EBB8EBB8EBB8EBBA0
:1048D0008EBB8EBB8EBB8EBB8EBB8EBB8EBB8EBB90
:1048E0008EBB8EBB8EBB8EBB8EBB8EBB8EBB8EBB80
:1048F0008EBB8EBB8EBB8EBB8EBB8EBB8EBB8EBB70
:104900008EBB8EBBCDAB8323800380038003800BE3
:10491000800380038003800380038003800380037F
:104920008003800B410B015A00C000B800B800B8EA
:1049300000B800B800B800B800B800B800C000B8AF
:1049400001C000A84CC386B900B800B800B800B8D0
:1049500000B800B800B800C001B800C040B800C03E
:1049600001A80751501A7CBEFFE7D553D511560058
:10497000170017001700170017001700170017007F
:1049800017001700170017005410976B172917000E
:1049900017001700180017085600180055081000D7
:1049A0001608170017001101040381038003810B0F
:1049B00080038003800380038003800380038003DF
:1049C0008003810B80038003411312539773977305
:1049D0009773977397739773977397739773977387
:1049E0009773977397739773977397739773977377
:1049F0009773977397739773977397739773977367
:104A00009773977397739773977397739773977356
:104A10009773977397739773977397739773977346
:104A20009773977397739773977397739773977336
:104A300096730F3A967397739773977397739773E9
:104A40009773977397739773977397739773977316
:104A50009773976B977397739773976B976BD43222
:104A6000C803E105E105E005E005E005E005E00536
:104A7000E005E005E005E005E005E005E005E0050E
:104A8000E005E005E005E005E005E005E005E005FE
:104A9000E1058005C212A004E005821D810D82138C
:104AA000020A810BE105442D010C820DE005E005B1
:104AB000E00DE105E005E00DE005273D2C5E8215E7
:104AC000E005E105E005E005E005E005E005E005BD
:104AD000E005E005E005E005E1054D053405340D90
:104AE000340D3505340534053405340534053405F5
:104AF000340D340D3315346D557D341D3405350DAD
:104B0000340534053405340534053405340D340DCD
:104B100035055305500DE305E00DE005E005E00522
:104B2000E005E005E005E005E005E005E105E0055C
:104B3000E0158635E635E005E005E005E005E00531
:104B4000E005E00DE00DE005E10D810D810DE105D1
:104B5000820DE10DE005E105E105E00DE00DE00568
:104B6000E005E005E005E005E105E005E005E0051C
:104B7000E005E005E005E005E005E005E005E0050D
:104B8000E005E005E005E105E005E00D820D8C03A0
:104B900050324FA38EBB8EBB8EBB8EBB8EBB8EBBEB
:104BA0008EBB8EBB8EBB8EBB8EBB8EBB8EBB8EBBBD
:104BB0008EBB8EBB8EBB8EBB8EBB8EBB8EBB8EBBAD
:104BC0008EBB8EBB8EBB8EBB8EBB8EBB8EBB8EBB9D
:104BD0008EBB8EBB8EBB8EBB8EBB8EBB8EBB8EBB8D
:104BE0008EBB8EBB8EBB8EBB8EBB8EBB8EBB8EBB7D
:104BF0008EBB8EBB8EBB8EBB8EBB8EBB8EBB8EBB6D
:104C00008EBB8EBB8EBB8EBB8EBB8EBB8EBB8EBB5C
:104C10008EBB8EBB8EBB8EBB8EBB8EBB8EBB8EBB4C
:104C20008EBB8EBBCDAB8323800380038003800BC0
:104C3000800380038003800380038003800380035C
:104C40008003800B410B015A00C000B800B800B8C7
:104C500000B800B800B800B800B800B800C000B88C
:104C600001C000A84CC386B900B800B800B800B8AD
:104C700000B800B800B800C001B800C040B800C01B
:104C800001A80751501A7CBEFFE7D553D511560035
:104C9000170017001700170017001700170017005C
:104CA00017001700170017005410976B17291700EB
:104CB00017001700180017085600180055081000B4
:104CC0001608170017001101040381038003810BEC
:104CD00080038003800380038003800380038003BC
:104CE0008003810B800380034113125397739773E2
:104CF0009773977397739773977397739773977364
:104D00009773977397739773977397739773977353
:104D10009773977397739773977397739773977343
:104D20009773977397739773977397739773977333
:104D30009773977397739773977397739773977323
:104D40009773977397739773977397739773977313
:104D500096730F3A967397739773977397739773C6
:104D600097739773977397739773977397739773F3
:104D70009773976B977397739773976B976BD432FF
:104D8000C803E105E105E005E005E005E005E00513
:104D9000E005E005E005E005E005E005E005E005EB
:104DA000E005E005E005E005E005E005E005E005DB
:104DB000E1058005C113E004E005E005E10D442DA7
:104DC0004115420C80054325010C810DE005E005ED
:104DD000E00DE105E005E00DE005273D2C5E8215C4
:104DE000E005E105E005E005E005E005E005E0059A
:104DF000E005E005E005E005E1054D053405340D6D
:104E0000340D3505340534053405340534053405D1
:104E1000340D340D3315346D557D341D3405350D89
:104E2000340534053405340534053405340D340DAA
:104E300035055305500DE305E00DE005E005E005FF
:104E4000E005E005E005E005E005E005E105E00539
:104E5000E0158635E635E005E005E005E005E0050E
:104E6000E005E005E00520062006200620062006D5
:104E7000200620062006E005E00520062006E105C4
:104E8000E005E005E005E0052006E005E005E005B9
:104E9000E005E005E005E005E005E005E005E005EA
:104EA000E005E005E005E105E005E00D820D8C037D
:104EB00050324FA38EBB8EBB8EBB8EBB8EBB8EBBC8
:104EC0008EBB8EBB8EBB8EBB8EBB8EBB8EBB8EBB9A
:104ED0008EBB8EBB8EBB8EBB8EBB8EBB8EBB8EBB8A
:104EE0008EBB8EBB8EBB8EBB8EBB8EBB8EBB8EBB7A
:104EF0008EBB8EBB8EBB8EBB8EBB8EBB8EBB8EBB6A
:104F00008EBB8EBB8EBB8EBB8EBB8EBB8EBB8EBB59
:104F10008EBB8EBB8EBB8EBB8EBB8EBB8EBB8EBB49
:104F20008EBB8EBB8EBB8EBB8EBB8EBB8EBB8EBB39
:104F30008EBB8EBB8EBB8EBB8EBB8EBB8EBB8EBB29
:104F40008EBB8EBBCDAB8323800380038003800B9D
:104F50008003800380038003800380038003800339
:104F60008003800B410B015A00C000B800B800B8A4
:104F700000B800B800B800B800B800B800C000B869
:104F800001C000A84CC386B900B800B800B800B88A
:104F900000B800B800B800C001B800C040B800C0F8
:104FA00001A80751501A7CBEFFE7D553D511560012
:104FB0001700170017001700170017001700170039
:104FC00017001700170017005410976B17291700C8
:104FD0001700170018001708560018005508100091
:104FE0001608170017001101040381038003810BC9
:104FF0008003800380038003800380038003800399
:105000008003810B800380034113125397739773BE
:105010009773977397739773977397739773977340
:105020009773977397739773977397739773977330
:105030009773977397739773977397739773977320
:105040009773977397739773977397739773977310
:105050009773977397739773977397739773977300
:1050600097739773977397739773977397739773F0
:1050700096730F3A967397739773977397739773A3
:1050800097739773977397739773977397739773D0
:105090009773976B977397739773976B976BD432DC
:1050A000C803E105E105E005E005E005E005E005F0
:1050B000E005E005E005E005E005E005E005E005C8
:1050C000E005E005E005E005E005E005E005E005B8
:1050D000E105E005A324410DE0058215421401130A
:1050E000A114231DE10D2325000CE10DE005E005D1
:1050F000E00DE105E005E00DE005273D2C5E8215A1
:10510000E005E105E005E005E005E005E005E00576
:10511000E005E005E005E005E1054D053405340D49
:10512000340D3505340534053405340534053405AE
:10513000340D340D3315346D557D341D3405350D66
:10514000340534053405340534053405340D340D87
:1051500035055305500DE305E00DE005E005E005DC
:10516000E005E005E005E005E005E005E105E00516
:10517000E0158635E635E005E005E005E005E005EB
:10518000E005E105E105E10DE00DE00DE015E015BC
:105190002006E00DE10D810DE10DE005E005E005E3
:1051A000E005E105E005E005200EE005E005E0058D
:1051B000E005E005E005E005E005E005E005E005C7
:1051C000E005E005E005E105E005E00D820D8C035A
:1051D00050324FA38EBB8EBB8EBB8EBB8EBB8EBBA5
:1051E0008EBB8EBB8EBB8EBB8EBB8EBB8EBB8EBB77
:1051F0008EBB8EBB8EBB8EBB8EBB8EBB8EBB8EBB67
:105200008EBB8EBB8EBB8EBB8EBB8EBB8EBB8EBB56
:105210008EBB8EBB8EBB8EBB8EBB8EBB8EBB8EBB46
:105220008EBB8EBB8EBB8EBB8EBB8EBB8EBB8EBB36
:105230008EBB8EBB8EBB8EBB8EBB8EBB8EBB8EBB26
:105240008EBB8EBB8EBB8EBB8EBB8EBB8EBB8EBB16
:105250008EBB8EBB8EBB8EBB8EBB8EBB8EBB8EBB06
:105260008EBB8EBBCDAB8323800380038003800B7A
:105270008003800380038003800380038003800316
:105280008003800B410B015A00C000B800B800B881
:1052900000B800B800B800B800B800B800C000B846
:1052A00001C000A84CC386B900B800B800B800B867
:1052B00000B800B800B800C001B800C040B800C0D5
:1052C00001A80751501A7CBEFFE7D553D5115600EF
:1052D0001700170017001700170017001700170016
:1052E00017001700170017005410976B17291700A5
:1052F000170017001800170856001800550810006E
:105300001608170017001101040381038003810BA5
:105310008003800380038003800380038003800375
:105320008003810B8003800341131253977397739B
:10533000977397739773977397739773977397731D
:10534000977397739773977397739773977397730D
:1053500097739773977397739773977397739773FD
:1053600097739773977397739773977397739773ED
:1053700097739773977397739773977397739773DD
:1053800097739773977397739773977397739773CD
:1053900096730F3A96739773977397739773977380
:1053A00097739773977397739773977397739773AD
:1053B0009773976B977397739773976B976BD432B9
:1053C000C803E105E105E005E005E005E005E005CD
:1053D000E005E005E005E005E005E005E005E005A5
:1053E000E005E005E005E005E005E005E005E00595
:1053F000E005E005C20AA004810D4113810A44239F
:10540000820AC10A810D4325400CE10DE005E0054B
:10541000E00DE105E005E00DE005273D2C5E82157D
:10542000E005E105E005E005E005E005E005E00553
:10543000E005E005E005E005E1054D053405340D26
:10544000340D35053405340534053405340534058B
:10545000340D340D3315346D557D341D3405350D43
:10546000340534053405340534053405340D340D64
:1054700035055305500DE305E00DE005E005E005B9
:10548000E005E005E005E005E005E005E105E005F3
:10549000E0158635E635E005E005E005E005E005C8
:1054A000E0052006E00DE115E10DE00D810D81150F
:1054B0002006E10DE215E10DE10DE105E005200614
:1054C0002006E005E105E105E00DE005E005E00569
:1054D000E005E005E005E005E005E005E005E005A4
:1054E000E005E005E005E105E005E00D820D8C0337
:1054F00050324FA38EBB8EBB8EBB8EBB8EBB8EBB82
:105500008EBB8EBB8EBB8EBB8EBB8EBB8EBB8EBB53
:105510008EBB8EBB8EBB8EBB8EBB8EBB8EBB8EBB43
:105520008EBB8EBB8EBB8EBB8EBB8EBB8EBB8EBB33
:105530008EBB8EBB8EBB8EBB8EBB8EBB8EBB8EBB23
:105540008EBB8EBB8EBB8EBB8EBB8EBB8EBB8EBB13
:105550008EBB8EBB8EBB8EBB8EBB8EBB8EBB8EBB03
:105560008EBB8EBB8EBB8EBB8EBB8EBB8EBB8EBBF3
:105570008EBB8EBB8EBB8EBB8EBB8EBB8EBB8EBBE3
:105580008EBB8EBBCDAB8323800380038003800B57
:1055900080038003800380038003800380038003F3
:1055A0008003800B410B015A00C000B800B800B85E
:1055B00000B800B800B800B800B800B800C000B823
:1055C00001C000A84CC386B900B800B800B800B844
:1055D00000B800B800B800C001B800C040B800C0B2
:1055E00001A80751501A7CBEFFE7D553D5115600CC
:1055F00017001700170017001700170017001700F3
:1056000017001700170017005410976B1729170081
:10561000170017001800170856001800550810004A
:105620001608170017001101040381038003810B82
:105630008003800380038003800380038003800352
:105640008003810B80038003411312539773977378
:1056500097739773977397739773977397739773FA
:1056600097739773977397739773977397739773EA
:1056700097739773977397739773977397739773DA
:1056800097739773977397739773977397739773CA
:1056900097739773977397739773977397739773BA
:1056A00097739773977397739773977397739773AA
:1056B00096730F3A9673977397739773977397735D
:1056C000977397739773977397739773977397738A
:1056D0009773976B977397739773976B976BD43296
:1056E000C803E105E105E005E005E005E005E005AA
:1056F000E005E005E005E005E005E005E005E00582
:10570000E005E005E005E005E005E005E005E00571
:10571000E005E10583124204231D4002410D820D84
:105720004515810AE004442D400CE105E005E00543
:10573000E00DE105E005E00DE005273D2C5E82155A
:10574000E005E105E005E005E005E005E005E00530
:10575000E005E005E005E005E1054D053405340D03
:10576000340D350534053405340534053405340568
:10577000340D340D3315346D557D341D3405350D20
:10578000340534053405340534053405340D340D41
:1057900035055305500DE305E00DE005E005E00596
:1057A000E005E005E005E005E005E005E105E005D0
:1057B000E0158635E635E005E005E005E005E005A5
:1057C000E0056006E005E10DE00560062006E10D5C
:1057D000200EE10DE00520066006E005E10DE01574
:1057E000E00D210EE105E105810DE005E005E00594
:1057F000E005E005E005E005E005E005E005E00581
:10580000E005E005E005E105E005E00D820D8C0313
:1058100050324FA38EBB8EBB8EBB8EBB8EBB8EBB5E
:105820008EBB8EBB8EBB8EBB8EBB8EBB8EBB8EBB30
:105830008EBB8EBB8EBB8EBB8EBB8EBB8EBB8EBB20
:105840008EBB8EBB8EBB8EBB8EBB8EBB8EBB8EBB10
:105850008EBB8EBB8EBB8EBB8EBB8EBB8EBB8EBB00
:105860008EBB8EBB8EBB8EBB8EBB8EBB8EBB8EBBF0
:105870008EBB8EBB8EBB8EBB8EBB8EBB8EBB8EBBE0
:105880008EBB8EBB8EBB8EBB8EBB8EBB8EBB8EBBD0
:105890008EBB8EBB8EBB8EBB8EBB8EBB8EBB8EBBC0
:1058A0008EBB8EBBCDAB8323800380038003800B34
:1058B00080038003800380038003800380038003D0
:1058C0008003800B410B015A00C000B800B800B83B
:1058D00000B800B800B800B800B800B800C000B800
:1058E00001C000A84CC386B900B800B800B800B821
:1058F00000B800B800B800C001B800C040B800C08F
:1059000001A80751501A7CBEFFE7D553D5115600A8
:1059100017001700170017001700170017001700CF
:1059200017001700170017005410976B172917005E
:105930001700170018001708560018005508100027
:105940001608170017001101040381038003810B5F
:10595000800380038003800380038003800380032F
:105960008003810B80038003411312539773977355
:1059700097739773977397739773977397739773D7
:1059800097739773977397739773977397739773C7
:1059900097739773977397739773977397739773B7
:1059A00097739773977397739773977397739773A7
:1059B0009773977397739773977397739773977397
:1059C0009773977397739773977397739773977387
:1059D00096730F3A9673977397739773977397733A
:1059E0009773977397739773977397739773977367
:1059F0009773976B977397739773976B976BD43273
:105A0000C803E105E105E005E005E005E005E00586
:105A1000E005E005E005E005E005E005E005E0055E
:105A2000E005E005E005E005E005E005E005E0054E
:105A30008005E10D010B810A032340028005E10D81
:105A4000820D410AE10C252D010CE105E005E00580
:105A5000E00DE105E005E00DE005273D2C5E821537
:105A6000E005E105E005E005E005E005E005E0050D
:105A7000E005E005E005E005E1054D053405340DE0
:105A8000340D350534053405340534053405340545
:105A9000340D340D3315346D557D341D3405350DFD
:105AA000340534053405340534053405340D340D1E
:105AB00035055305500DE305E00DE005E005E00573
:105AC000E005E005E005E005E005E005E105E005AD
:105AD000E0158635E635E005E005E005E005E00582
